:020000040800F2
:1000000000000220ED0300083D0400083D04000844
:100010003D0400083D0400083D0400080000000005
:100020000000000000000000000000003D04000887
:100030003D040008000000003D0400083D040008E5
:100040003D0400083D0400083D0400083D0400088C
:100050003D0400083D0400083D0400083D0400087C
:100060003D0400083D0400083D0400083D0400086C
:100070003D0400083D0400083D0400083D0400085C
:100080003D0400083D0400083D0400083D0400084C
:100090003D0400083D0400083D0400083D0400083C
:1000A0003D0400083D0400083D0400083D0400082C
:1000B0003D0400083D0400083D0400083D0400081C
:1000C0003D0400083D0400083D0400083D0400080C
:1000D0003D0400083D0400083D0400083D040008FC
:1000E0003D0400083D0400083D0400083D040008EC
:1000F0003D0400083D0400083D0400083D040008DC
:100100003D0400083D0400083D0400083D040008CB
:100110003D0400083D0400083D0400083D040008BB
:100120003D0400083D0400083D0400083D040008AB
:100130003D0400083D0400083D0400083D0400089B
:100140003D0400083D0400083D0400083D0400088B
:100150003D0400083D0400083D0400083D0400087B
:100160003D0400083D0400083D0400083D0400086B
:100170003D0400083D0400083D04000800000000A4
:080180003D0400083D040008E5
:10018800A3F5803A704700BF154B002B08BF114BF1
:100198009D46FFF7F5FF00218B460F461148124A8E
:1001A800121A00F099F90C4B002B00D098470B4B12
:1001B800002B00D098470020002104000D000B48B8
:1001C80000F03AF900F064F92000290000F0EEF898
:1001D80000F038F9000008000000000000000000EE
:1001E800000000004C0400208C0400206D0400086E
:1001F80039483A4AD0F8883043F47003C0F8883058
:100208001368002143F00103136091601368A0F1A3
:10021800BC2023F0847323F48033F03813605060DB
:10022800136882B023F480231360D1600091019198
:10023800136843F48033136003E0009BB3F5A04FC9
:1002480009D0136803F400330193009B0133009332
:10025800019B002BF1D0214B1B6813F4003318BF0E
:1002680001230193019B012B05D01B4B4FF000622A
:100278009A6002B07047194B19491A6C194842F034
:1002880080521A640A6842F440420A609A689A6086
:100298009A6842F400429A609A6842F4A0529A60BE
:1002A80058601A6842F080721A601A689201FCD588
:1002B8000D4A40F205711160996821F003019960B7
:1002C800996841F00201A2F580629960936803F091
:1002D8000C03082BFAD1C8E700ED00E00038024013
:1002E8000070004019544007003C0240164A9368C9
:1002F80003F00C03042B0BD0082B0BD0134B124A22
:1003080013499268C2F303128A5CD3400B617047A9
:10031800104BF4E75368516813F4800F536814BF07
:100328000C4A0A4AC3F3881301F03F01B2FBF1F209
:1003380002FB03F3044A5268C2F30142013252003D
:10034800B3FBF2F3DBE700BF003802400024F400FF
:100358000000002040787D01800700080000002090
:100368004C0400204C0400208C04002010B5054CDF
:10037800237833B9044B13B10448AFF30080012349
:10038800237010BD4C040020000000005007000836
:1003980008B5034B1BB103490348AFF3008008BD00
:1003A8000000000050040020500700080B490B68AB
:1003B80043F480330B600B689B03FCD501238B60EF
:1003C8000B6B074A43F008030B63136843F0806321
:1003D8001360536943F400535361FAE7003802404D
:1003E800000C0240DFF834D00D480E490E4A0023B5
:1003F80002E0D458C4500433C4188C42F9D30B4AD1
:100408000B4C002301E013600432A242FBD3FFF738
:10041800EFFE00F03DF8FFF7C9FF7047000002202B
:10042800000000204C040020800700084C04002035
:100438008C040020FEE70000002301461A461846F7
:1004480000F09CB808B50021044600F0E3F8044B1E
:100458001868C36B03B19847204600F083F900BFC2
:100468002807000838B5084B084D5B1B9C1007D0BF
:10047800043B1D44013C55F804399847002CF9D138
:10048800BDE8384000F068B9800700087C0700081C
:1004980070B50D4E0D4D761BB61006D0002455F8DC
:1004A800043B01349847A642F9D1094E094D761B01
:1004B80000F04CF9B61006D0002455F8043B01347E
:1004C8009847A642F9D170BD740700087407000860
:1004D8007C07000874070008830730B548D0541E0D
:1004E800002A3FD0CAB2034601E0013C3AD303F8E0
:1004F800012B9D07F9D1032C2DD9CDB245EA05254D
:100508000F2C45EA054536D9A4F1100222F00F0C4C
:1005180003F1200EE6444FEA121C03F1100242E9EF
:10052800045542E9025510327245F8D10CF1010226
:1005380014F00C0F03EB021204F00F0C13D0ACF103
:10054800040323F003030433134442F8045B934287
:10055800FBD10CF003042CB1CAB21C4403F8012BE4
:100568009C42FBD130BD64461346002CF4D1F9E718
:1005780003461446BFE71A46A446E0E72DE9F843C8
:100588001D4D0646286898460F46914600F0ACF87F
:100598001A4B1B68D3F848411CB3286865681F2D9F
:1005A80024DC4EB96B1C0235636044F8257000F0FA
:1005B800A3F80020BDE8F88304EB85010123C1F806
:1005C8008890D4F88821AB401A43022EC4F88821B9
:1005D800C1F80881E6D1D4F88C211343C4F88C31D2
:1005E800E0E703F5A674C3F84841D6E700F084F8BD
:1005F8004FF0FF30DEE700BF48040020280700085E
:10060800024B13B10248FFF717BF70470000000004
:100618006D0400082DE9F84F2C4B2DED028B834615
:1006280018680F4600F060F8294BD3F80080D8F816
:100638004861AEB108EE10BA4FF001094FF0000A58
:100648007468651E0CD4013406EB840487B1D4F8B1
:100658000031BB420CD0013D6B1CA4F10404F5D160
:10066800BDEC028B194B1868BDE8F84F00F044B890
:1006780073682268013BAB420CBF7560C4F800A0E8
:10068800002AE8D0D6F88811D6F804B009FA05FC93
:100698001CEA010F0BD190477168D8F848215945D9
:1006A80001D1B242D7D0002ADAD01646C8E7D6F828
:1006B8008C31D4F880101CEA030F03D118EE100A0D
:1006C8009047E9E708469047E6E700BF480400205E
:1006D80028070008704700BF704700BF704700BF79
:1006E800704700BF704700BF704700BF01207047C8
:1006F80001207047704700BF704700BF3A3D0A3D70
:100708000F3D243D323D023D053D133D0D3D0C3D61
:10071800233D113D263D013D173D083D093D0000A3
:10072800200000203A3D0A3D0F3D243D323D023D68
:10073800053D133D0D3D0C3D233D113D263D013D3D
:10074800173D083D093D000000000000F8B500BF56
:10075800F8BC08BC9E467047F8B500BFF8BC08BC9A
:040768009E467047F2
:08076C001CFAFF7F01000000F0
:080774000906000899030008C2
:04077C0075030008F9
:100780000000000000000000010203040607080941
:10079000007A030A00000000200000200000000092
:1007A000000000000C03002074030020DC03002084
:1007B0000000000000000000000000000000000039
:1007C0000000000000000000000000000000000029
:1007D0000000000000000000000000000000000019
:1007E0000000000000000000000000000000000009
:1007F00000000000000000000000000000000000F9
:1008000000000000000000000000000000000000E8
:1008100000000000000000000000000000000000D8
:1008200000000000000000000000000000000000C8
:1008300000000000000000000000000000000000B8
:1008400000000000000000000100000000000000A7
:100850000E33CDAB34126DE6ECDE05000B0000006C
:100860000000000000000000000000000000000088
:100870000000000000000000000000000000000078
:100880000000000000000000000000000000000068
:100890000000000000000000000000000000000058
:0C0BC00000000000000000007004002095
:04000005080003EDFF
:00000001FF
